{
  "address": "0x9C0F85683fD6c84c89DF8a8c12a519Ebae19CE13",
  "abi": [
    {
      "inputs": [
        {
          "internalType": "address",
          "name": "exampleExternalContractAddress",
          "type": "address"
        }
      ],
      "stateMutability": "nonpayable",
      "type": "constructor"
    },
    {
      "anonymous": false,
      "inputs": [
        {
          "indexed": false,
          "internalType": "address",
          "name": "",
          "type": "address"
        },
        {
          "indexed": false,
          "internalType": "uint256",
          "name": "",
          "type": "uint256"
        }
      ],
      "name": "Stake",
      "type": "event"
    },
    {
      "anonymous": false,
      "inputs": [
        {
          "indexed": false,
          "internalType": "address",
          "name": "",
          "type": "address"
        },
        {
          "indexed": false,
          "internalType": "uint256",
          "name": "",
          "type": "uint256"
        }
      ],
      "name": "Withdraw",
      "type": "event"
    },
    {
      "inputs": [
        {
          "internalType": "address",
          "name": "",
          "type": "address"
        }
      ],
      "name": "balances",
      "outputs": [
        {
          "internalType": "uint256",
          "name": "",
          "type": "uint256"
        }
      ],
      "stateMutability": "view",
      "type": "function"
    },
    {
      "inputs": [],
      "name": "deadline",
      "outputs": [
        {
          "internalType": "uint256",
          "name": "",
          "type": "uint256"
        }
      ],
      "stateMutability": "view",
      "type": "function"
    },
    {
      "inputs": [],
      "name": "exampleExternalContract",
      "outputs": [
        {
          "internalType": "contract ExampleExternalContract",
          "name": "",
          "type": "address"
        }
      ],
      "stateMutability": "view",
      "type": "function"
    },
    {
      "inputs": [],
      "name": "execute",
      "outputs": [
        {
          "internalType": "uint256",
          "name": "",
          "type": "uint256"
        }
      ],
      "stateMutability": "nonpayable",
      "type": "function"
    },
    {
      "inputs": [],
      "name": "metThreshold",
      "outputs": [
        {
          "internalType": "bool",
          "name": "",
          "type": "bool"
        }
      ],
      "stateMutability": "view",
      "type": "function"
    },
    {
      "inputs": [],
      "name": "openForWithdraw",
      "outputs": [
        {
          "internalType": "bool",
          "name": "",
          "type": "bool"
        }
      ],
      "stateMutability": "view",
      "type": "function"
    },
    {
      "inputs": [],
      "name": "stake",
      "outputs": [],
      "stateMutability": "payable",
      "type": "function"
    },
    {
      "inputs": [],
      "name": "threshold",
      "outputs": [
        {
          "internalType": "uint256",
          "name": "",
          "type": "uint256"
        }
      ],
      "stateMutability": "view",
      "type": "function"
    },
    {
      "inputs": [],
      "name": "timeLeft",
      "outputs": [
        {
          "internalType": "uint256",
          "name": "",
          "type": "uint256"
        }
      ],
      "stateMutability": "view",
      "type": "function"
    },
    {
      "inputs": [],
      "name": "withdraw",
      "outputs": [],
      "stateMutability": "payable",
      "type": "function"
    },
    {
      "stateMutability": "payable",
      "type": "receive"
    }
  ],
  "transactionHash": "0x1036622eba3b658a8e24160dffdba0612ff89069af197bad2119e335cb5d30a6",
  "args": [
    "0x608ee31d1b66c815707D3f48831068Aa07986541"
  ],
  "numDeployments": 1,
  "solcInputHash": "600141a0e5d19e8e0f0d039cc7396756",
  "bytecode": "0x6080604052610011426203f48061009c565b6002556003805460ff1916905534801561002a57600080fd5b506040516106573803806106578339810160408190526100499161006e565b600080546001600160a01b0319166001600160a01b03929092169190911790556100c0565b60006020828403121561007f578081fd5b81516001600160a01b0381168114610095578182fd5b9392505050565b600082198211156100bb57634e487b7160e01b81526011600452602481fd5b500190565b610588806100cf6000396000f3fe6080604052600436106100955760003560e01c806342cde4e81161005957806342cde4e81461012457806361461954146101405780639876a643146101555780639f75f2271461017f578063df49c26b146101b757600080fd5b80631300a6d1146100a957806327e235e3146100d157806329dcb0cf146100fe5780633a4b66f1146101145780633ccfd60b1461011c57600080fd5b366100a4576100a26101d5565b005b600080fd5b3480156100b557600080fd5b506100be610233565b6040519081526020015b60405180910390f35b3480156100dd57600080fd5b506100be6100ec3660046104df565b60016020526000908152604090205481565b34801561010a57600080fd5b506100be60025481565b6100a26101d5565b6100a2610257565b34801561013057600080fd5b506100be670de0b6b3a764000081565b34801561014c57600080fd5b506100be610432565b34801561016157600080fd5b5060035461016f9060ff1681565b60405190151581526020016100c8565b34801561018b57600080fd5b5060005461019f906001600160a01b031681565b6040516001600160a01b0390911681526020016100c8565b3480156101c357600080fd5b50670de0b6b3a764000047101561016f565b33600090815260016020526040812080543492906101f490849061050d565b9091555050604080513381523460208201527febedb8b3c678666e7f36970bc8f57abf6d8fa2e828c0da91ea5b75bf68ed101a910160405180910390a1565b600060025442106102445750600090565b426002546102529190610525565b905090565b61025f610233565b156102a85760405162461bcd60e51b8152602060048201526014602482015273191958591b1a5b99481b9bdd081b595d081e595d60621b60448201526064015b60405180910390fd5b670de0b6b3a764000047106102f75760405162461bcd60e51b81526020600482015260156024820152741d1a1c995cda1bdb19081b9bdd081b595d081e595d605a1b604482015260640161029f565b33600090815260016020526040902054806103545760405162461bcd60e51b815260206004820152601860248201527f796f7520646f6e2774206861766520612062616c616e63650000000000000000604482015260640161029f565b604051600090339083908381818185875af1925050503d8060008114610396576040519150601f19603f3d011682016040523d82523d6000602084013e61039b565b606091505b50509050806103e35760405162461bcd60e51b81526020600482015260146024820152732330b4b632b2103a379039b2b7321022ba3432b960611b604482015260640161029f565b33600081815260016020908152604080832092909255815192835282018490527f884edad9ce6fa2440d8a54cc123490eb96d2768479d49ff9c7366125a9424364910160405180910390a15050565b6000670de0b6b3a764000047101561045857506003805460ff1916600190811790915590565b60025442106104cf5760008054906101000a90046001600160a01b03166001600160a01b031663522e1177476040518263ffffffff1660e01b81526004016000604051808303818588803b1580156104af57600080fd5b505af11580156104c3573d6000803e3d6000fd5b50505050506000905090565b506003805460ff19169055600190565b6000602082840312156104f0578081fd5b81356001600160a01b0381168114610506578182fd5b9392505050565b600082198211156105205761052061053c565b500190565b6000828210156105375761053761053c565b500390565b634e487b7160e01b600052601160045260246000fdfea264697066735822122099ef9cc3a302c26c4f2bab1a26acfd1b7f9f934060ba8eccb1d652375aee4c8264736f6c63430008040033",
  "devdoc": {
    "kind": "dev",
    "methods": {},
    "version": 1
  },
  "userdoc": {
    "kind": "user",
    "methods": {},
    "version": 1
  },
  "storageLayout": {
    "storage": [
      {
        "astId": 19,
        "contract": "contracts/Staker.sol:Staker",
        "label": "exampleExternalContract",
        "offset": 0,
        "slot": "0",
        "type": "t_contract(ExampleExternalContract)12"
      },
      {
        "astId": 23,
        "contract": "contracts/Staker.sol:Staker",
        "label": "balances",
        "offset": 0,
        "slot": "1",
        "type": "t_mapping(t_address,t_uint256)"
      },
      {
        "astId": 32,
        "contract": "contracts/Staker.sol:Staker",
        "label": "deadline",
        "offset": 0,
        "slot": "2",
        "type": "t_uint256"
      },
      {
        "astId": 35,
        "contract": "contracts/Staker.sol:Staker",
        "label": "openForWithdraw",
        "offset": 0,
        "slot": "3",
        "type": "t_bool"
      }
    ],
    "types": {
      "t_address": {
        "encoding": "inplace",
        "label": "address",
        "numberOfBytes": "20"
      },
      "t_bool": {
        "encoding": "inplace",
        "label": "bool",
        "numberOfBytes": "1"
      },
      "t_contract(ExampleExternalContract)12": {
        "encoding": "inplace",
        "label": "contract ExampleExternalContract",
        "numberOfBytes": "20"
      },
      "t_mapping(t_address,t_uint256)": {
        "encoding": "mapping",
        "key": "t_address",
        "label": "mapping(address => uint256)",
        "numberOfBytes": "32",
        "value": "t_uint256"
      },
      "t_uint256": {
        "encoding": "inplace",
        "label": "uint256",
        "numberOfBytes": "32"
      }
    }
  }
}